{
  "contractName": "NRG",
  "abi": [
    {
      "inputs": [],
      "stateMutability": "nonpayable",
      "type": "constructor"
    },
    {
      "anonymous": false,
      "inputs": [
        {
          "indexed": true,
          "internalType": "address",
          "name": "_owner",
          "type": "address"
        },
        {
          "indexed": true,
          "internalType": "address",
          "name": "_spender",
          "type": "address"
        },
        {
          "indexed": false,
          "internalType": "uint256",
          "name": "_value",
          "type": "uint256"
        }
      ],
      "name": "Approve",
      "type": "event"
    },
    {
      "anonymous": false,
      "inputs": [
        {
          "indexed": true,
          "internalType": "address",
          "name": "_from",
          "type": "address"
        },
        {
          "indexed": true,
          "internalType": "address",
          "name": "_to",
          "type": "address"
        },
        {
          "indexed": false,
          "internalType": "uint256",
          "name": "_value",
          "type": "uint256"
        }
      ],
      "name": "Transfer",
      "type": "event"
    },
    {
      "inputs": [
        {
          "internalType": "address",
          "name": "",
          "type": "address"
        },
        {
          "internalType": "address",
          "name": "",
          "type": "address"
        }
      ],
      "name": "allowance",
      "outputs": [
        {
          "internalType": "uint256",
          "name": "",
          "type": "uint256"
        }
      ],
      "stateMutability": "view",
      "type": "function"
    },
    {
      "inputs": [
        {
          "internalType": "address",
          "name": "",
          "type": "address"
        }
      ],
      "name": "balanceOf",
      "outputs": [
        {
          "internalType": "uint256",
          "name": "",
          "type": "uint256"
        }
      ],
      "stateMutability": "view",
      "type": "function"
    },
    {
      "inputs": [],
      "name": "decimals",
      "outputs": [
        {
          "internalType": "uint8",
          "name": "",
          "type": "uint8"
        }
      ],
      "stateMutability": "view",
      "type": "function"
    },
    {
      "inputs": [],
      "name": "name",
      "outputs": [
        {
          "internalType": "string",
          "name": "",
          "type": "string"
        }
      ],
      "stateMutability": "view",
      "type": "function"
    },
    {
      "inputs": [],
      "name": "symbol",
      "outputs": [
        {
          "internalType": "string",
          "name": "",
          "type": "string"
        }
      ],
      "stateMutability": "view",
      "type": "function"
    },
    {
      "inputs": [],
      "name": "totalSupply",
      "outputs": [
        {
          "internalType": "uint256",
          "name": "",
          "type": "uint256"
        }
      ],
      "stateMutability": "view",
      "type": "function"
    },
    {
      "inputs": [
        {
          "internalType": "address",
          "name": "_to",
          "type": "address"
        },
        {
          "internalType": "uint256",
          "name": "_value",
          "type": "uint256"
        }
      ],
      "name": "transfer",
      "outputs": [
        {
          "internalType": "bool",
          "name": "success",
          "type": "bool"
        }
      ],
      "stateMutability": "nonpayable",
      "type": "function"
    },
    {
      "inputs": [
        {
          "internalType": "address",
          "name": "_from",
          "type": "address"
        },
        {
          "internalType": "address",
          "name": "_to",
          "type": "address"
        },
        {
          "internalType": "uint256",
          "name": "_value",
          "type": "uint256"
        }
      ],
      "name": "transferFrom",
      "outputs": [
        {
          "internalType": "bool",
          "name": "success",
          "type": "bool"
        }
      ],
      "stateMutability": "nonpayable",
      "type": "function"
    },
    {
      "inputs": [
        {
          "internalType": "address",
          "name": "addr",
          "type": "address"
        }
      ],
      "name": "getBalanceInEth",
      "outputs": [
        {
          "internalType": "uint256",
          "name": "",
          "type": "uint256"
        }
      ],
      "stateMutability": "view",
      "type": "function"
    },
    {
      "inputs": [
        {
          "internalType": "address",
          "name": "addr",
          "type": "address"
        }
      ],
      "name": "getBalance",
      "outputs": [
        {
          "internalType": "uint256",
          "name": "",
          "type": "uint256"
        }
      ],
      "stateMutability": "view",
      "type": "function"
    }
  ],
  "bytecode": "0x60806040526040518060400160405280600881526020017f457468657265756d000000000000000000000000000000000000000000000000815250600090816200004a91906200038e565b506040518060400160405280600381526020017f4554480000000000000000000000000000000000000000000000000000000000815250600190816200009191906200038e565b50670de0b6b3a76400006002556012600360006101000a81548160ff021916908360ff160217905550348015620000c757600080fd5b50600254600460003373ffffffffffffffffffffffffffffffffffffffff1673ffffffffffffffffffffffffffffffffffffffff1681526020019081526020016000208190555062000475565b600081519050919050565b7f4e487b7100000000000000000000000000000000000000000000000000000000600052604160045260246000fd5b7f4e487b7100000000000000000000000000000000000000000000000000000000600052602260045260246000fd5b600060028204905060018216806200019657607f821691505b602082108103620001ac57620001ab6200014e565b5b50919050565b60008190508160005260206000209050919050565b60006020601f8301049050919050565b600082821b905092915050565b600060088302620002167fffffffffffffffffffffffffffffffffffffffffffffffffffffffffffffffff82620001d7565b620002228683620001d7565b95508019841693508086168417925050509392505050565b6000819050919050565b6000819050919050565b60006200026f6200026962000263846200023a565b62000244565b6200023a565b9050919050565b6000819050919050565b6200028b836200024e565b620002a36200029a8262000276565b848454620001e4565b825550505050565b600090565b620002ba620002ab565b620002c781848462000280565b505050565b5b81811015620002ef57620002e3600082620002b0565b600181019050620002cd565b5050565b601f8211156200033e576200030881620001b2565b6200031384620001c7565b8101602085101562000323578190505b6200033b6200033285620001c7565b830182620002cc565b50505b505050565b600082821c905092915050565b6000620003636000198460080262000343565b1980831691505092915050565b60006200037e838362000350565b9150826002028217905092915050565b620003998262000114565b67ffffffffffffffff811115620003b557620003b46200011f565b5b620003c182546200017d565b620003ce828285620002f3565b600060209050601f831160018114620004065760008415620003f1578287015190505b620003fd858262000370565b8655506200046d565b601f1984166200041686620001b2565b60005b82811015620004405784890151825560018201915060208501945060208101905062000419565b868310156200046057848901516200045c601f89168262000350565b8355505b6001600288020188555050505b505050505050565b610c2380620004856000396000f3fe608060405234801561001057600080fd5b506004361061009e5760003560e01c80637bd703e8116100665780637bd703e81461015d57806395d89b411461018d578063a9059cbb146101ab578063dd62ed3e146101db578063f8b2cb4f1461020b5761009e565b806306fdde03146100a357806318160ddd146100c157806323b872dd146100df578063313ce5671461010f57806370a082311461012d575b600080fd5b6100ab61023b565b6040516100b891906107e5565b60405180910390f35b6100c96102c9565b6040516100d69190610820565b60405180910390f35b6100f960048036038101906100f491906108ca565b6102cf565b6040516101069190610938565b60405180910390f35b610117610439565b604051610124919061096f565b60405180910390f35b6101476004803603810190610142919061098a565b61044c565b6040516101549190610820565b60405180910390f35b6101776004803603810190610172919061098a565b610464565b6040516101849190610820565b60405180910390f35b6101956104f0565b6040516101a291906107e5565b60405180910390f35b6101c560048036038101906101c091906109b7565b61057e565b6040516101d29190610938565b60405180910390f35b6101f560048036038101906101f091906109f7565b6106e7565b6040516102029190610820565b60405180910390f35b6102256004803603810190610220919061098a565b61070c565b6040516102329190610820565b60405180910390f35b6000805461024890610a66565b80601f016020809104026020016040519081016040528092919081815260200182805461027490610a66565b80156102c15780601f10610296576101008083540402835291602001916102c1565b820191906000526020600020905b8154815290600101906020018083116102a457829003601f168201915b505050505081565b60025481565b600081600460008673ffffffffffffffffffffffffffffffffffffffff1673ffffffffffffffffffffffffffffffffffffffff16815260200190815260200160002054101561031d57600080fd5b81600460008673ffffffffffffffffffffffffffffffffffffffff1673ffffffffffffffffffffffffffffffffffffffff168152602001908152602001600020600082825461036c9190610ac6565b9250508190555081600460008573ffffffffffffffffffffffffffffffffffffffff1673ffffffffffffffffffffffffffffffffffffffff16815260200190815260200160002060008282546103c29190610afa565b925050819055508273ffffffffffffffffffffffffffffffffffffffff168473ffffffffffffffffffffffffffffffffffffffff167fddf252ad1be2c89b69c2b068fc378daa952ba7f163c4a11628f55a4df523b3ef846040516104269190610820565b60405180910390a3600190509392505050565b600360009054906101000a900460ff1681565b60046020528060005260406000206000915090505481565b600073__ConvertLib____________________________6396e4ee3d6104898461070c565b60026040518363ffffffff1660e01b81526004016104a8929190610b82565b602060405180830381865af41580156104c5573d6000803e3d6000fd5b505050506040513d601f19601f820116820180604052508101906104e99190610bc0565b9050919050565b600180546104fd90610a66565b80601f016020809104026020016040519081016040528092919081815260200182805461052990610a66565b80156105765780601f1061054b57610100808354040283529160200191610576565b820191906000526020600020905b81548152906001019060200180831161055957829003601f168201915b505050505081565b600081600460003373ffffffffffffffffffffffffffffffffffffffff1673ffffffffffffffffffffffffffffffffffffffff1681526020019081526020016000205410156105cc57600080fd5b81600460003373ffffffffffffffffffffffffffffffffffffffff1673ffffffffffffffffffffffffffffffffffffffff168152602001908152602001600020600082825461061b9190610ac6565b9250508190555081600460008573ffffffffffffffffffffffffffffffffffffffff1673ffffffffffffffffffffffffffffffffffffffff16815260200190815260200160002060008282546106719190610afa565b925050819055508273ffffffffffffffffffffffffffffffffffffffff163373ffffffffffffffffffffffffffffffffffffffff167fddf252ad1be2c89b69c2b068fc378daa952ba7f163c4a11628f55a4df523b3ef846040516106d59190610820565b60405180910390a36001905092915050565b6005602052816000526040600020602052806000526040600020600091509150505481565b6000600460008373ffffffffffffffffffffffffffffffffffffffff1673ffffffffffffffffffffffffffffffffffffffff168152602001908152602001600020549050919050565b600081519050919050565b600082825260208201905092915050565b60005b8381101561078f578082015181840152602081019050610774565b60008484015250505050565b6000601f19601f8301169050919050565b60006107b782610755565b6107c18185610760565b93506107d1818560208601610771565b6107da8161079b565b840191505092915050565b600060208201905081810360008301526107ff81846107ac565b905092915050565b6000819050919050565b61081a81610807565b82525050565b60006020820190506108356000830184610811565b92915050565b600080fd5b600073ffffffffffffffffffffffffffffffffffffffff82169050919050565b600061086b82610840565b9050919050565b61087b81610860565b811461088657600080fd5b50565b60008135905061089881610872565b92915050565b6108a781610807565b81146108b257600080fd5b50565b6000813590506108c48161089e565b92915050565b6000806000606084860312156108e3576108e261083b565b5b60006108f186828701610889565b935050602061090286828701610889565b9250506040610913868287016108b5565b9150509250925092565b60008115159050919050565b6109328161091d565b82525050565b600060208201905061094d6000830184610929565b92915050565b600060ff82169050919050565b61096981610953565b82525050565b60006020820190506109846000830184610960565b92915050565b6000602082840312156109a05761099f61083b565b5b60006109ae84828501610889565b91505092915050565b600080604083850312156109ce576109cd61083b565b5b60006109dc85828601610889565b92505060206109ed858286016108b5565b9150509250929050565b60008060408385031215610a0e57610a0d61083b565b5b6000610a1c85828601610889565b9250506020610a2d85828601610889565b9150509250929050565b7f4e487b7100000000000000000000000000000000000000000000000000000000600052602260045260246000fd5b60006002820490506001821680610a7e57607f821691505b602082108103610a9157610a90610a37565b5b50919050565b7f4e487b7100000000000000000000000000000000000000000000000000000000600052601160045260246000fd5b6000610ad182610807565b9150610adc83610807565b9250828203905081811115610af457610af3610a97565b5b92915050565b6000610b0582610807565b9150610b1083610807565b9250828201905080821115610b2857610b27610a97565b5b92915050565b610b3781610807565b82525050565b6000819050919050565b6000819050919050565b6000610b6c610b67610b6284610b3d565b610b47565b610807565b9050919050565b610b7c81610b51565b82525050565b6000604082019050610b976000830185610b2e565b610ba46020830184610b73565b9392505050565b600081519050610bba8161089e565b92915050565b600060208284031215610bd657610bd561083b565b5b6000610be484828501610bab565b9150509291505056fea2646970667358221220dc3e81ec4fc7458dad4d2f3c734a5646c745af81c44decdceca3d59854bca4e464736f6c63430008110033",
  "immutableReferences": {},
  "source": "pragma solidity ^0.8;\r\n\r\nimport \"./ConvertLib.sol\";\r\n\r\ncontract NRG{\r\n  string public name = 'Ethereum';\r\n  string public symbol = 'ETH';\r\n  uint256 public totalSupply = 1000000000000000000;\r\n  uint8 public decimals = 18;\r\n\r\n  event Transfer(\r\n    address indexed _from,\r\n    address indexed _to,\r\n    uint _value\r\n  );\r\n\r\n  event Approve(\r\n    address indexed _owner,\r\n    address indexed _spender,\r\n    uint _value\r\n  );\r\n\r\n  mapping(address => uint256) public balanceOf;\r\n  mapping(address => mapping(address => uint256)) public allowance;\r\n\r\n  constructor(){\r\n    balanceOf[msg.sender] = totalSupply;\r\n  }\r\n\r\n  function transfer(address _to, uint256 _value) public returns (bool success){\r\n    require(balanceOf[msg.sender] >= _value);\r\n    balanceOf[msg.sender] -= _value;\r\n    balanceOf[_to] += _value;\r\n    emit Transfer(msg.sender, _to, _value);\r\n    return true;\r\n  }\r\n\r\n  function transferFrom(address _from, address _to, uint256 _value) public returns (bool success){\r\n    require(balanceOf[_from] >= _value);\r\n    balanceOf[_from] -= _value;\r\n    balanceOf[_to] += _value;\r\n    emit Transfer(_from, _to, _value);\r\n    return true;\r\n  }\r\n\r\n  function getBalanceInEth(address addr) public view returns (uint256){\r\n    return ConvertLib.convert(getBalance(addr), 2);\r\n  }\r\n\r\n  function getBalance(address addr) public view returns(uint256){\r\n    return balanceOf[addr];\r\n  }\r\n\r\n}",
  "sourcePath": "C:\\Users\\Hugo\\Desktop\\final_year_project\\Tutorial\\bnrg\\contracts\\NRG.sol",
  "compiler": {
    "name": "solc",
    "version": "0.8.17+commit.8df45f5f.Emscripten.clang"
  },
  "schemaVersion": "3.4.10",
  "updatedAt": "2023-02-28T09:51:38.162Z",
  "devdoc": {
    "kind": "dev",
    "methods": {},
    "version": 1
  },
  "userdoc": {
    "kind": "user",
    "methods": {},
    "version": 1
  }
}