{
  "contractName": "NRGToken",
  "abi": [
    {
      "inputs": [],
      "stateMutability": "nonpayable",
      "type": "constructor"
    },
    {
      "anonymous": false,
      "inputs": [
        {
          "indexed": true,
          "internalType": "address",
          "name": "_owner",
          "type": "address"
        },
        {
          "indexed": true,
          "internalType": "address",
          "name": "_spender",
          "type": "address"
        },
        {
          "indexed": false,
          "internalType": "uint256",
          "name": "_value",
          "type": "uint256"
        }
      ],
      "name": "Approve",
      "type": "event"
    },
    {
      "anonymous": false,
      "inputs": [
        {
          "indexed": false,
          "internalType": "uint256",
          "name": "newTotalSupply",
          "type": "uint256"
        }
      ],
      "name": "SupplyChanged",
      "type": "event"
    },
    {
      "anonymous": false,
      "inputs": [
        {
          "indexed": true,
          "internalType": "address",
          "name": "_from",
          "type": "address"
        },
        {
          "indexed": true,
          "internalType": "address",
          "name": "_to",
          "type": "address"
        },
        {
          "indexed": false,
          "internalType": "uint256",
          "name": "_value",
          "type": "uint256"
        }
      ],
      "name": "Transfer",
      "type": "event"
    },
    {
      "inputs": [
        {
          "internalType": "address",
          "name": "",
          "type": "address"
        },
        {
          "internalType": "address",
          "name": "",
          "type": "address"
        }
      ],
      "name": "allowance",
      "outputs": [
        {
          "internalType": "uint256",
          "name": "",
          "type": "uint256"
        }
      ],
      "stateMutability": "view",
      "type": "function"
    },
    {
      "inputs": [
        {
          "internalType": "address",
          "name": "",
          "type": "address"
        }
      ],
      "name": "balanceOf",
      "outputs": [
        {
          "internalType": "uint256",
          "name": "",
          "type": "uint256"
        }
      ],
      "stateMutability": "view",
      "type": "function"
    },
    {
      "inputs": [],
      "name": "decimals",
      "outputs": [
        {
          "internalType": "uint8",
          "name": "",
          "type": "uint8"
        }
      ],
      "stateMutability": "view",
      "type": "function"
    },
    {
      "inputs": [],
      "name": "name",
      "outputs": [
        {
          "internalType": "string",
          "name": "",
          "type": "string"
        }
      ],
      "stateMutability": "view",
      "type": "function"
    },
    {
      "inputs": [],
      "name": "symbol",
      "outputs": [
        {
          "internalType": "string",
          "name": "",
          "type": "string"
        }
      ],
      "stateMutability": "view",
      "type": "function"
    },
    {
      "inputs": [],
      "name": "totalSupply",
      "outputs": [
        {
          "internalType": "uint256",
          "name": "",
          "type": "uint256"
        }
      ],
      "stateMutability": "view",
      "type": "function"
    },
    {
      "inputs": [
        {
          "internalType": "address",
          "name": "_to",
          "type": "address"
        },
        {
          "internalType": "uint256",
          "name": "_value",
          "type": "uint256"
        }
      ],
      "name": "transfer",
      "outputs": [
        {
          "internalType": "bool",
          "name": "success",
          "type": "bool"
        }
      ],
      "stateMutability": "nonpayable",
      "type": "function"
    },
    {
      "inputs": [
        {
          "internalType": "address",
          "name": "_from",
          "type": "address"
        },
        {
          "internalType": "address",
          "name": "_to",
          "type": "address"
        },
        {
          "internalType": "uint256",
          "name": "_value",
          "type": "uint256"
        }
      ],
      "name": "transferFrom",
      "outputs": [
        {
          "internalType": "bool",
          "name": "success",
          "type": "bool"
        }
      ],
      "stateMutability": "nonpayable",
      "type": "function"
    },
    {
      "inputs": [
        {
          "internalType": "address",
          "name": "addr",
          "type": "address"
        }
      ],
      "name": "getBalance",
      "outputs": [
        {
          "internalType": "uint256",
          "name": "",
          "type": "uint256"
        }
      ],
      "stateMutability": "view",
      "type": "function"
    },
    {
      "inputs": [
        {
          "internalType": "address",
          "name": "_to",
          "type": "address"
        },
        {
          "internalType": "uint256",
          "name": "_value",
          "type": "uint256"
        }
      ],
      "name": "mint",
      "outputs": [],
      "stateMutability": "nonpayable",
      "type": "function"
    },
    {
      "inputs": [
        {
          "internalType": "address",
          "name": "_to",
          "type": "address"
        },
        {
          "internalType": "uint256",
          "name": "_value",
          "type": "uint256"
        }
      ],
      "name": "burn",
      "outputs": [],
      "stateMutability": "nonpayable",
      "type": "function"
    },
    {
      "inputs": [
        {
          "internalType": "address",
          "name": "_from",
          "type": "address"
        },
        {
          "internalType": "address",
          "name": "_to",
          "type": "address"
        },
        {
          "internalType": "uint256",
          "name": "_value",
          "type": "uint256"
        }
      ],
      "name": "exchangeETHForTokens",
      "outputs": [],
      "stateMutability": "payable",
      "type": "function"
    },
    {
      "inputs": [
        {
          "internalType": "uint256",
          "name": "ethAmount",
          "type": "uint256"
        }
      ],
      "name": "calculateTokenAmount",
      "outputs": [
        {
          "internalType": "uint256",
          "name": "",
          "type": "uint256"
        }
      ],
      "stateMutability": "nonpayable",
      "type": "function"
    },
    {
      "inputs": [],
      "name": "getExchangeRate",
      "outputs": [
        {
          "internalType": "uint256",
          "name": "",
          "type": "uint256"
        }
      ],
      "stateMutability": "nonpayable",
      "type": "function"
    }
  ],
  "bytecode": "0x60806040526040518060400160405280600881526020017f4e5247546f6b656e000000000000000000000000000000000000000000000000815250600190816200004a9190620003ce565b506040518060400160405280600381526020017f4e5247000000000000000000000000000000000000000000000000000000000081525060029081620000919190620003ce565b50670de0b6b3a76400006003556012600460006101000a81548160ff021916908360ff160217905550348015620000c757600080fd5b50336000806101000a81548173ffffffffffffffffffffffffffffffffffffffff021916908373ffffffffffffffffffffffffffffffffffffffff160217905550600354600560003373ffffffffffffffffffffffffffffffffffffffff1673ffffffffffffffffffffffffffffffffffffffff16815260200190815260200160002081905550620004b5565b600081519050919050565b7f4e487b7100000000000000000000000000000000000000000000000000000000600052604160045260246000fd5b7f4e487b7100000000000000000000000000000000000000000000000000000000600052602260045260246000fd5b60006002820490506001821680620001d657607f821691505b602082108103620001ec57620001eb6200018e565b5b50919050565b60008190508160005260206000209050919050565b60006020601f8301049050919050565b600082821b905092915050565b600060088302620002567fffffffffffffffffffffffffffffffffffffffffffffffffffffffffffffffff8262000217565b62000262868362000217565b95508019841693508086168417925050509392505050565b6000819050919050565b6000819050919050565b6000620002af620002a9620002a3846200027a565b62000284565b6200027a565b9050919050565b6000819050919050565b620002cb836200028e565b620002e3620002da82620002b6565b84845462000224565b825550505050565b600090565b620002fa620002eb565b62000307818484620002c0565b505050565b5b818110156200032f5762000323600082620002f0565b6001810190506200030d565b5050565b601f8211156200037e576200034881620001f2565b620003538462000207565b8101602085101562000363578190505b6200037b620003728562000207565b8301826200030c565b50505b505050565b600082821c905092915050565b6000620003a36000198460080262000383565b1980831691505092915050565b6000620003be838362000390565b9150826002028217905092915050565b620003d98262000154565b67ffffffffffffffff811115620003f557620003f46200015f565b5b620004018254620001bd565b6200040e82828562000333565b600060209050601f83116001811462000446576000841562000431578287015190505b6200043d8582620003b0565b865550620004ad565b601f1984166200045686620001f2565b60005b82811015620004805784890151825560018201915060208501945060208101905062000459565b86831015620004a057848901516200049c601f89168262000390565b8355505b6001600288020188555050505b505050505050565b61122480620004c56000396000f3fe6080604052600436106100dd5760003560e01c806395d89b411161007f578063a9059cbb11610059578063a9059cbb146102b3578063dd62ed3e146102f0578063e6aa216c1461032d578063f8b2cb4f14610358576100dd565b806395d89b41146102225780639dc29fac1461024d578063a24bcf4614610276576100dd565b8063313ce567116100bb578063313ce5671461017557806340c10f19146101a0578063542ffbf1146101c957806370a08231146101e5576100dd565b806306fdde03146100e257806318160ddd1461010d57806323b872dd14610138575b600080fd5b3480156100ee57600080fd5b506100f7610395565b6040516101049190610c86565b60405180910390f35b34801561011957600080fd5b50610122610423565b60405161012f9190610cc1565b60405180910390f35b34801561014457600080fd5b5061015f600480360381019061015a9190610d6b565b610429565b60405161016c9190610dd9565b60405180910390f35b34801561018157600080fd5b5061018a610593565b6040516101979190610e10565b60405180910390f35b3480156101ac57600080fd5b506101c760048036038101906101c29190610e2b565b6105a6565b005b6101e360048036038101906101de9190610d6b565b6106e0565b005b3480156101f157600080fd5b5061020c60048036038101906102079190610e6b565b6107c4565b6040516102199190610cc1565b60405180910390f35b34801561022e57600080fd5b506102376107dc565b6040516102449190610c86565b60405180910390f35b34801561025957600080fd5b50610274600480360381019061026f9190610e2b565b61086a565b005b34801561028257600080fd5b5061029d60048036038101906102989190610e98565b6109fb565b6040516102aa9190610cc1565b60405180910390f35b3480156102bf57600080fd5b506102da60048036038101906102d59190610e2b565b610a16565b6040516102e79190610dd9565b60405180910390f35b3480156102fc57600080fd5b5061031760048036038101906103129190610ec5565b610b7f565b6040516103249190610cc1565b60405180910390f35b34801561033957600080fd5b50610342610ba4565b60405161034f9190610cc1565b60405180910390f35b34801561036457600080fd5b5061037f600480360381019061037a9190610e6b565b610bad565b60405161038c9190610cc1565b60405180910390f35b600180546103a290610f34565b80601f01602080910402602001604051908101604052809291908181526020018280546103ce90610f34565b801561041b5780601f106103f05761010080835404028352916020019161041b565b820191906000526020600020905b8154815290600101906020018083116103fe57829003601f168201915b505050505081565b60035481565b600081600560008673ffffffffffffffffffffffffffffffffffffffff1673ffffffffffffffffffffffffffffffffffffffff16815260200190815260200160002054101561047757600080fd5b81600560008673ffffffffffffffffffffffffffffffffffffffff1673ffffffffffffffffffffffffffffffffffffffff16815260200190815260200160002060008282546104c69190610f94565b9250508190555081600560008573ffffffffffffffffffffffffffffffffffffffff1673ffffffffffffffffffffffffffffffffffffffff168152602001908152602001600020600082825461051c9190610fc8565b925050819055508273ffffffffffffffffffffffffffffffffffffffff168473ffffffffffffffffffffffffffffffffffffffff167fddf252ad1be2c89b69c2b068fc378daa952ba7f163c4a11628f55a4df523b3ef846040516105809190610cc1565b60405180910390a3600190509392505050565b600460009054906101000a900460ff1681565b60008054906101000a900473ffffffffffffffffffffffffffffffffffffffff1673ffffffffffffffffffffffffffffffffffffffff163373ffffffffffffffffffffffffffffffffffffffff1614610634576040517f08c379a000000000000000000000000000000000000000000000000000000000815260040161062b90611048565b60405180910390fd5b80600360008282546106469190610fc8565b9250508190555080600560008473ffffffffffffffffffffffffffffffffffffffff1673ffffffffffffffffffffffffffffffffffffffff168152602001908152602001600020600082825461069c9190610fc8565b925050819055507ff71f9c3841c0bab7774017ffe585aeab36b5438d148506067901d47c5fa6f7e96003546040516106d49190610cc1565b60405180910390a15050565b60006106eb346109fb565b905081341015610730576040517f08c379a0000000000000000000000000000000000000000000000000000000008152600401610727906110b4565b60405180910390fd5b81600560008573ffffffffffffffffffffffffffffffffffffffff1673ffffffffffffffffffffffffffffffffffffffff1681526020019081526020016000205410156107b2576040517f08c379a00000000000000000000000000000000000000000000000000000000081526004016107a990611120565b60405180910390fd5b6107bd838584610429565b5050505050565b60056020528060005260406000206000915090505481565b600280546107e990610f34565b80601f016020809104026020016040519081016040528092919081815260200182805461081590610f34565b80156108625780601f1061083757610100808354040283529160200191610862565b820191906000526020600020905b81548152906001019060200180831161084557829003601f168201915b505050505081565b60008054906101000a900473ffffffffffffffffffffffffffffffffffffffff1673ffffffffffffffffffffffffffffffffffffffff163373ffffffffffffffffffffffffffffffffffffffff16148015610904575080600560008473ffffffffffffffffffffffffffffffffffffffff1673ffffffffffffffffffffffffffffffffffffffff1681526020019081526020016000205410155b80156109105750600081115b61094f576040517f08c379a00000000000000000000000000000000000000000000000000000000081526004016109469061118c565b60405180910390fd5b80600360008282546109619190610f94565b9250508190555080600560008473ffffffffffffffffffffffffffffffffffffffff1673ffffffffffffffffffffffffffffffffffffffff16815260200190815260200160002060008282546109b79190610f94565b925050819055507ff71f9c3841c0bab7774017ffe585aeab36b5438d148506067901d47c5fa6f7e96003546040516109ef9190610cc1565b60405180910390a15050565b600080600983610a0b91906111ac565b905080915050919050565b600081600560003373ffffffffffffffffffffffffffffffffffffffff1673ffffffffffffffffffffffffffffffffffffffff168152602001908152602001600020541015610a6457600080fd5b81600560003373ffffffffffffffffffffffffffffffffffffffff1673ffffffffffffffffffffffffffffffffffffffff1681526020019081526020016000206000828254610ab39190610f94565b9250508190555081600560008573ffffffffffffffffffffffffffffffffffffffff1673ffffffffffffffffffffffffffffffffffffffff1681526020019081526020016000206000828254610b099190610fc8565b925050819055508273ffffffffffffffffffffffffffffffffffffffff163373ffffffffffffffffffffffffffffffffffffffff167fddf252ad1be2c89b69c2b068fc378daa952ba7f163c4a11628f55a4df523b3ef84604051610b6d9190610cc1565b60405180910390a36001905092915050565b6006602052816000526040600020602052806000526040600020600091509150505481565b6000604e905090565b6000600560008373ffffffffffffffffffffffffffffffffffffffff1673ffffffffffffffffffffffffffffffffffffffff168152602001908152602001600020549050919050565b600081519050919050565b600082825260208201905092915050565b60005b83811015610c30578082015181840152602081019050610c15565b60008484015250505050565b6000601f19601f8301169050919050565b6000610c5882610bf6565b610c628185610c01565b9350610c72818560208601610c12565b610c7b81610c3c565b840191505092915050565b60006020820190508181036000830152610ca08184610c4d565b905092915050565b6000819050919050565b610cbb81610ca8565b82525050565b6000602082019050610cd66000830184610cb2565b92915050565b600080fd5b600073ffffffffffffffffffffffffffffffffffffffff82169050919050565b6000610d0c82610ce1565b9050919050565b610d1c81610d01565b8114610d2757600080fd5b50565b600081359050610d3981610d13565b92915050565b610d4881610ca8565b8114610d5357600080fd5b50565b600081359050610d6581610d3f565b92915050565b600080600060608486031215610d8457610d83610cdc565b5b6000610d9286828701610d2a565b9350506020610da386828701610d2a565b9250506040610db486828701610d56565b9150509250925092565b60008115159050919050565b610dd381610dbe565b82525050565b6000602082019050610dee6000830184610dca565b92915050565b600060ff82169050919050565b610e0a81610df4565b82525050565b6000602082019050610e256000830184610e01565b92915050565b60008060408385031215610e4257610e41610cdc565b5b6000610e5085828601610d2a565b9250506020610e6185828601610d56565b9150509250929050565b600060208284031215610e8157610e80610cdc565b5b6000610e8f84828501610d2a565b91505092915050565b600060208284031215610eae57610ead610cdc565b5b6000610ebc84828501610d56565b91505092915050565b60008060408385031215610edc57610edb610cdc565b5b6000610eea85828601610d2a565b9250506020610efb85828601610d2a565b9150509250929050565b7f4e487b7100000000000000000000000000000000000000000000000000000000600052602260045260246000fd5b60006002820490506001821680610f4c57607f821691505b602082108103610f5f57610f5e610f05565b5b50919050565b7f4e487b7100000000000000000000000000000000000000000000000000000000600052601160045260246000fd5b6000610f9f82610ca8565b9150610faa83610ca8565b9250828203905081811115610fc257610fc1610f65565b5b92915050565b6000610fd382610ca8565b9150610fde83610ca8565b9250828201905080821115610ff657610ff5610f65565b5b92915050565b7f4f6e6c7920746865206f776e65722063616e206d696e7420746f6b656e732e00600082015250565b6000611032601f83610c01565b915061103d82610ffc565b602082019050919050565b6000602082019050818103600083015261106181611025565b9050919050565b7f496e73756666696369656e74204554482062616c616e63652e00000000000000600082015250565b600061109e601983610c01565b91506110a982611068565b602082019050919050565b600060208201905081810360008301526110cd81611091565b9050919050565b7f496e73756666696369656e7420746f6b656e2062616c616e63652e0000000000600082015250565b600061110a601b83610c01565b9150611115826110d4565b602082019050919050565b60006020820190508181036000830152611139816110fd565b9050919050565b7f496e73756666696369656e742062616c616e63652e0000000000000000000000600082015250565b6000611176601583610c01565b915061118182611140565b602082019050919050565b600060208201905081810360008301526111a581611169565b9050919050565b60006111b782610ca8565b91506111c283610ca8565b92508282026111d081610ca8565b915082820484148315176111e7576111e6610f65565b5b509291505056fea2646970667358221220db1c0e7c008ec715a575b32dd8455a0a5d7ec2c12bd51e87f94eb2cf4baa122764736f6c63430008110033",
  "immutableReferences": {},
  "source": "// SPDX-License-Identifier: MIT\r\n\r\npragma solidity ^0.8;\r\n\r\n//import \"@chainlink/contracts/src/v0.8/interfaces/AggregatorV3Interface.sol\";\r\n\r\ncontract NRGToken{\r\n  address private owner;\r\n  string public name = 'NRGToken';\r\n  string public symbol = 'NRG';\r\n  uint256 public totalSupply = 1000000000000000000;\r\n  uint8 public decimals = 18;\r\n\r\n  event Transfer(\r\n    address indexed _from,\r\n    address indexed _to,\r\n    uint _value\r\n  );\r\n\r\n  event Approve(\r\n    address indexed _owner,\r\n    address indexed _spender,\r\n    uint _value\r\n  );\r\n\r\n  event SupplyChanged(uint256 newTotalSupply);\r\n\r\n  mapping(address => uint256) public balanceOf;\r\n  mapping(address => mapping(address => uint256)) public allowance;\r\n\r\n  constructor(){\r\n    owner = msg.sender;\r\n    balanceOf[msg.sender] = totalSupply;\r\n  }\r\n\r\n  function transfer(address _to, uint256 _value) public returns (bool success){\r\n    require(balanceOf[msg.sender] >= _value);\r\n    balanceOf[msg.sender] -= _value;\r\n    balanceOf[_to] += _value;\r\n    emit Transfer(msg.sender, _to, _value);\r\n    return true;\r\n  }\r\n\r\n  function transferFrom(address _from, address _to, uint256 _value) public returns (bool success){\r\n    require(balanceOf[_from] >= _value);\r\n    balanceOf[_from] -= _value;\r\n    balanceOf[_to] += _value;\r\n    emit Transfer(_from, _to, _value);\r\n    return true;\r\n  }\r\n\r\n  function getBalance(address addr) public view returns(uint256){\r\n    return balanceOf[addr];\r\n  }\r\n\r\n  // Increase the total supply of the token\r\n  function mint(address _to, uint256 _value) public {\r\n      require(msg.sender == owner, \"Only the owner can mint tokens.\");\r\n      totalSupply += _value;\r\n      balanceOf[_to] += _value;\r\n      emit SupplyChanged(totalSupply);\r\n  }\r\n\r\n  // Decrease the total supply of the token\r\n  function burn(address _to, uint256 _value) public {\r\n      require(msg.sender == owner && balanceOf[_to] >= _value && _value > 0, \"Insufficient balance.\");\r\n      totalSupply -= _value;\r\n      balanceOf[_to] -= _value;\r\n      emit SupplyChanged(totalSupply);\r\n  }\r\n\r\n\r\n  function exchangeETHForTokens(address _from, address _to, uint256 _value) public payable {\r\n    uint256 token_amount = calculateTokenAmount(msg.value);\r\n    // Check that the caller has enough ETH to exchange\r\n    require(msg.value >= _value, \"Insufficient ETH balance.\");\r\n    // Check that the contract has enough tokens to exchange\r\n    require(balanceOf[_to] >= _value, \"Insufficient token balance.\");\r\n    // Transfer the ETH to the recipient\r\n    //msg.sender.transfer(msg.value);\r\n    // Transfer the tokens to the recipient\r\n    transferFrom(_to, _from, _value);\r\n  }\r\n\r\n  function calculateTokenAmount(uint256 ethAmount) public returns(uint256){\r\n    // Look up the current exchange rate\r\n    //int256 exchangeRate = getExchangeRate();\r\n    // Calculate the amount of tokens the user will receive\r\n    uint256 tokenAmount = ethAmount * 9;\r\n    // Return the amount of tokens\r\n    return tokenAmount;\r\n  }\r\n\r\n  function getExchangeRate() public returns(uint256){\r\n    return 78;\r\n  }\r\n\r\n\r\n\r\n\r\n}",
  "sourcePath": "C:\\Users\\Hugo\\Desktop\\final_year_project\\Tutorial\\chat_gpt\\contracts\\NRGToken.sol",
  "compiler": {
    "name": "solc",
    "version": "0.8.17+commit.8df45f5f.Emscripten.clang"
  },
  "schemaVersion": "3.4.10",
  "updatedAt": "2022-12-09T15:42:16.738Z",
  "devdoc": {
    "kind": "dev",
    "methods": {},
    "version": 1
  },
  "userdoc": {
    "kind": "user",
    "methods": {},
    "version": 1
  }
}